{
    "_format": "hh-sol-artifact-1",
    "contractName": "Potato",
    "sourceName": "contracts/Potato.sol",
    "abi": [
        {
            "inputs": [
                {
                    "internalType": "uint256",
                    "name": "_potato",
                    "type": "uint256"
                },
                {
                    "internalType": "uint256",
                    "name": "_sourcream",
                    "type": "uint256"
                },
                {
                    "internalType": "uint256",
                    "name": "_cheese",
                    "type": "uint256"
                },
                {
                    "internalType": "uint256",
                    "name": "_bacon",
                    "type": "uint256"
                },
                {
                    "internalType": "uint256",
                    "name": "_chives",
                    "type": "uint256"
                }
            ],
            "name": "addIngredient",
            "outputs": [],
            "stateMutability": "nonpayable",
            "type": "function"
        },
        {
            "inputs": [
                {
                    "internalType": "uint256",
                    "name": "_potato",
                    "type": "uint256"
                },
                {
                    "internalType": "uint256",
                    "name": "_sourcream",
                    "type": "uint256"
                },
                {
                    "internalType": "uint256",
                    "name": "_cheese",
                    "type": "uint256"
                },
                {
                    "internalType": "uint256",
                    "name": "_bacon",
                    "type": "uint256"
                },
                {
                    "internalType": "uint256",
                    "name": "_chives",
                    "type": "uint256"
                }
            ],
            "name": "buyPotato",
            "outputs": [],
            "stateMutability": "payable",
            "type": "function"
        },
        {
            "inputs": [],
            "name": "getIngredients",
            "outputs": [
                {
                    "internalType": "uint256[]",
                    "name": "",
                    "type": "uint256[]"
                }
            ],
            "stateMutability": "view",
            "type": "function"
        }
    ],
    "bytecode": "0x6080604052348015600f57600080fd5b50610ae88061001f6000396000f3fe6080604052600436106100345760003560e01c806330eab276146100395780637fe4282514610062578063b0d141331461007e575b600080fd5b34801561004557600080fd5b50610060600480360381019061005b919061051b565b6100a9565b005b61007c6004803603810190610077919061051b565b61012c565b005b34801561008a57600080fd5b506100936103da565b6040516100a09190610654565b60405180910390f35b846000808282546100ba91906106a5565b9250508190555083600160008282546100d391906106a5565b9250508190555082600260008282546100ec91906106a5565b92505081905550816003600082825461010591906106a5565b92505081905550806004600082825461011e91906106a5565b925050819055505050505050565b60016000541015610172576040517f08c379a000000000000000000000000000000000000000000000000000000000815260040161016990610736565b60405180910390fd5b600185146101b5576040517f08c379a00000000000000000000000000000000000000000000000000000000081526004016101ac906107a2565b60405180910390fd5b8360015410156101fa576040517f08c379a00000000000000000000000000000000000000000000000000000000081526004016101f19061080e565b60405180910390fd5b82600254101561023f576040517f08c379a00000000000000000000000000000000000000000000000000000000081526004016102369061087a565b60405180910390fd5b816003541015610284576040517f08c379a000000000000000000000000000000000000000000000000000000000815260040161027b906108e6565b60405180910390fd5b8060045410156102c9576040517f08c379a00000000000000000000000000000000000000000000000000000000081526004016102c090610952565b60405180910390fd5b6000655af3107a4000828486886102e091906106a5565b6102ea91906106a5565b6102f491906106a5565b6102fe9190610972565b6601c6bf5263400061031091906106a5565b905080341015610355576040517f08c379a000000000000000000000000000000000000000000000000000000000815260040161034c90610a00565b60405180910390fd5b60016000808282546103679190610a20565b9250508190555084600160008282546103809190610a20565b9250508190555083600260008282546103999190610a20565b9250508190555082600360008282546103b29190610a20565b9250508190555081600460008282546103cb9190610a20565b92505081905550505050505050565b60606000600567ffffffffffffffff8111156103f9576103f8610a54565b5b6040519080825280602002602001820160405280156104275781602001602082028036833780820191505090505b5090506000548160008151811061044157610440610a83565b5b6020026020010181815250506001548160018151811061046457610463610a83565b5b6020026020010181815250506002548160028151811061048757610486610a83565b5b602002602001018181525050600354816003815181106104aa576104a9610a83565b5b602002602001018181525050600454816004815181106104cd576104cc610a83565b5b6020026020010181815250508091505090565b600080fd5b6000819050919050565b6104f8816104e5565b811461050357600080fd5b50565b600081359050610515816104ef565b92915050565b600080600080600060a08688031215610537576105366104e0565b5b600061054588828901610506565b955050602061055688828901610506565b945050604061056788828901610506565b935050606061057888828901610506565b925050608061058988828901610506565b9150509295509295909350565b600081519050919050565b600082825260208201905092915050565b6000819050602082019050919050565b6105cb816104e5565b82525050565b60006105dd83836105c2565b60208301905092915050565b6000602082019050919050565b600061060182610596565b61060b81856105a1565b9350610616836105b2565b8060005b8381101561064757815161062e88826105d1565b9750610639836105e9565b92505060018101905061061a565b5085935050505092915050565b6000602082019050818103600083015261066e81846105f6565b905092915050565b7f4e487b7100000000000000000000000000000000000000000000000000000000600052601160045260246000fd5b60006106b0826104e5565b91506106bb836104e5565b92508282019050808211156106d3576106d2610676565b5b92915050565b600082825260208201905092915050565b7f4e6f7420656e6f75676820706f7461746f657320617661696c61626c652e0000600082015250565b6000610720601e836106d9565b915061072b826106ea565b602082019050919050565b6000602082019050818103600083015261074f81610713565b9050919050565b7f506c6561736520627579203120706f7461746f20617420612074696d652e0000600082015250565b600061078c601e836106d9565b915061079782610756565b602082019050919050565b600060208201905081810360008301526107bb8161077f565b9050919050565b7f4e6f7420656e6f75676820736f757220637265616d20617661696c61626c652e600082015250565b60006107f86020836106d9565b9150610803826107c2565b602082019050919050565b60006020820190508181036000830152610827816107eb565b9050919050565b7f4e6f7420656e6f7567682063686565736520617661696c61626c652e00000000600082015250565b6000610864601c836106d9565b915061086f8261082e565b602082019050919050565b6000602082019050818103600083015261089381610857565b9050919050565b7f4e6f7420656e6f756768206261636f6e20617661696c61626c652e0000000000600082015250565b60006108d0601b836106d9565b91506108db8261089a565b602082019050919050565b600060208201905081810360008301526108ff816108c3565b9050919050565b7f4e6f7420656e6f7567682063686976657320617661696c61626c652e00000000600082015250565b600061093c601c836106d9565b915061094782610906565b602082019050919050565b6000602082019050818103600083015261096b8161092f565b9050919050565b600061097d826104e5565b9150610988836104e5565b9250828202610996816104e5565b915082820484148315176109ad576109ac610676565b5b5092915050565b7f4e6f7420656e6f756768204554482073656e742e000000000000000000000000600082015250565b60006109ea6014836106d9565b91506109f5826109b4565b602082019050919050565b60006020820190508181036000830152610a19816109dd565b9050919050565b6000610a2b826104e5565b9150610a36836104e5565b9250828203905081811115610a4e57610a4d610676565b5b92915050565b7f4e487b7100000000000000000000000000000000000000000000000000000000600052604160045260246000fd5b7f4e487b7100000000000000000000000000000000000000000000000000000000600052603260045260246000fdfea2646970667358221220513d7fa99f53fc266a766dd6197cd71aabd8f01f332a1c19a70d5698873780c964736f6c634300081b0033",
    "linkReferences": {},
    "deployedLinkReferences": {}
}